:100000000C94E2010C9429020C9429020C94E71C34
:100010000C9429020C9429020C9429020C942902B4
:100020000C9429020C9429020C9469240C943D250B
:100030000C94791F0C9429020C9429020C94290227
:100040000C9429020C9429020C9429020C94290284
:100050000C9429020C94EC1F0C9429020C94290294
:100060000C9429020C9429020C9429020C94290264
:100070000C9429020C9429020C9429020C94290254
:100080000C9429020C9429020C9429020C94290244
:100090000C9429020C9429020C9429020C94290234
:1000A0000C9429020C9429020C94290214001A00C1
:1000B0000800150012001300046216640761096845
:1000C0001D001B000600190005002B42280000003F
:1000D000000000000C0018001C00170033620F64C1
:1000E0000E610D680B000A00380037003600100062
:1000F00011002A412C0000000000000001001E0039
:100100001F0020004D0034020100210022002300C6
:10011000390024002500260027000351165C00004A
:10012000000000004B004E004A00A90034004F00C0
:10013000520051005000AA0001000100010001001E
:1001400001000100010000000000000001002F007C
:100150002F023002300035021E021F02200221024F
:100160000100010001000100010001000100000088
:1001700000000000270226022302010035003100A2
:100180002E002D0024022202010031022E022D0237
:10019000250203514C0000000000000001003A005D
:1001A0003B003C000100005C01003D003E003F00C0
:1001B0000100400041004200450001000100000034
:1001C00000000000FA00F900010043004900F000BF
:1001D000ED00EE00EF00440001000100F200F1002C
:1001E000010001000100000000000000000000000C
:1001F000000000002A2B2800000000000000000082
:100200000000000000000029000000002C1E342027
:10021000212224342627252E362D3738271E1F204D
:100220002122232425263333362E37381F04050692
:100230000708090A0B0C0D0E0F10111213141516D6
:100240001718191A1B1C1D2F3130232D35040506D4
:100250000708090A0B0C0D0E0F10111213141516B6
:100260001718191A1B1C1D2F3130354C00000000C7
:10027000000000000000000000000000000000007E
:10028000000000000000000000000000000000006E
:100290007E0F00D4FFFFFFC7000000780A03430071
:1002A0006C006F00670000000E0353006D006F00CC
:1002B00072006500730000000403090409023B009A
:1002C000020100A0FA090400000103010100092154
:1002D000110100012240000705810308000A0904FA
:1002E00001000103000000092111010001227B002F
:1002F0000705820320000A1201000200000008EF37
:10030000BE515001000102000105010902A1018551
:10031000020901A100050919012908150025019507
:1003200008750181020501093009311581257F9584
:10033000027508810609381581257F9501750881A8
:1003400006050C0A38021581257F9501750881067E
:10035000C0C005010980A101850319012AB7001554
:100360000126B700950175108100C0050C0901A197
:1003700001850419012AA002150126A00295017524
:10038000108100C005010906A101050719E029E750
:1003900015002501950875018102950175088101F7
:1003A0000507190029FF150026FF0095067508812D
:1003B000000508190129059505750191029501753A
:1003C000039101C011241FBECFEFDAE0DEBFCDBF25
:1003D00004B603FE27C08091B8029091B902A091A3
:1003E000BA02B091BB028730904BA740B04BD1F41A
:1003F0001092B8021092B9021092BA021092BB0287
:1004000014BE84B7877F84BF0FB6F894A8958091F7
:100410006000886180936000109260000FBEE0E091
:10042000F8E3099511E0A0E0B1E0E2E6FFE402C0E4
:1004300005900D92A43CB107D9F722E0A4ECB1E0FD
:1004400001C01D92A83BB207E1F70E948F160C94E1
:1004500087270C9400009C013A9521153F4150F5E7
:10046000FC01EE27F170BC0166277270AC014427D5
:1004700054709C012227387094FF0EC080E1EF2B4E
:1004800009F480E0672B09F08062452B09F0806455
:10049000232B89F08068089581E0EF2B09F480E038
:1004A000672B09F08260452B09F08460232B19F03B
:1004B0008860089580E00895CF93DF93EC010E9457
:1004C0002B029E01205E31092830310510F0209763
:1004D00039F40E942F058C2FDF91CF910C942804C2
:1004E0000E94B107F8CFCF93DF93EC010E94BA04CA
:1004F000CE010E942B029E01205E31092830310579
:1005000010F0CD2B21F4DF91CF910C943605DF91C3
:10051000CF910C94B807CF93DF93EC010E945C025B
:10052000CE01DF91CF910C94730281E0089581E0B8
:1005300008950C94970208950C949B021F93CF93F7
:10054000DF9300D000D00F92CDB7DEB749835A8336
:100550006B833091C60189819A8131111DC0662358
:10056000B9F02223A9F00E948309182F682F8981EE
:100570009A810E942C0969817A81812F0F900F90B6
:100580000F900F900F90DF91CF911F910C94DC0F83
:100590000E945A09182FEFCF0E94830969817A813E
:1005A000EDCFFC01262F40815181628173818481CE
:1005B0000C949E0281E00895CF93DF93EC0160E0FC
:1005C0000E94D102BE01DF91CF910C949C020E9447
:1005D00052120E94DC030E9467190C9477120C944B
:1005E0007A1280E00C94DD03089508950E94D507E7
:1005F0000E94F5022FEF84E39CE021508040904060
:10060000E1F700C000000C9410200F931F93CF93CC
:10061000DF938C0161E00E94D102EC01B8010E94DD
:1006200099028823D9F1B801CE010E940F1A8823BC
:10063000A9F1B801CE010E94ED1B882379F1B80120
:10064000CE010E942D1A882349F1B801CE010E94E3
:10065000571B882319F1F8018281882361F0CB357B
:10066000FDE5DF0721F170F4C115ECE5DE07A1F02F
:10067000CF3DDC45C9F0C801DF91CF911F910F91AB
:100680000C949502CC358DE5D807A1F0CD35DD452C
:1006900091F70E94330EEFCF0E94F60280E0DF91C7
:1006A000CF911F910F9108950E94ED0EF7CF0E94F8
:1006B0003C0EE1CF0E943F0EDECF0C94F4020E946C
:1006C0006B1E0E94DD030C945D03DF92EF92FF929C
:1006D0000F931F93CF93DF93E82FF0E0E451FE4F89
:1006E000D490282F26952695269530E0F901E457D9
:1006F000FD4F0491877010E0082E02C015950795F4
:100700000A94E2F701701127F901E458FD4FE490D3
:10071000F12C082E02C0F594E7940A94E2F791E0D8
:10072000E922FF24F901E459FD4FC491D0E002C051
:10073000D595C7958A95E2F7C170DD27011511059A
:1007400019F081EE0E942804E114F10419F086EEFC
:100750000E9428048D2D0E942705EF2819F086EEAF
:100760000E94BA04012B19F081EE0E94BA04CD2B2D
:1007700051F08CE2DF91CF911F910F91FF90EF909C
:10078000DF900C942705DF91CF911F910F91FF907F
:10079000EF90DF900895982F9F709A50963018F040
:1007A000805D0C946503895AFCCF08950C94D503A1
:1007B00081E008950C94D8030895CF93C82F0E9428
:1007C000D6038C2FCF910C94DA03CF93DF93CDB760
:1007D000DEB72B970FB6F894DEBF0FBECDBF4F83A9
:1007E000588769877A878B8761110E94810D1E82E5
:1007F0001D8285E0FE013796DE01119601900D9273
:100800008A95E1F78C819D81892B89F449815A81F0
:100810006B817C818D819E810E949F0C2B960FB6EF
:10082000F894DEBF0FBECDBFDF91CF9108958981CF
:100830009A8189238F3F51F3CE0101960E94DA02FB
:100840008111E4CFEBCFFC01808191810C94C5092B
:10085000CF93C82F882309F48BC08238C1F40E943B
:100860006B1E81FD85C089E30E94390D0E94B10D88
:100870002FEF81EE94E0215080409040E1F700C0DE
:10088000000089E30E94400DCF910C94B10D833894
:10089000A1F40E946B1E80FD6BC083E50E94390DA0
:1008A0000E94B10D2FEF81EE94E0215080409040E6
:1008B000E1F700C0000083E5E5CF8438A1F40E9491
:1008C0006B1E82FD55C087E40E94390D0E94B10D58
:1008D0002FEF81EE94E0215080409040E1F700C07E
:1008E000000087E4CFCF8CEF8C0F813A90F46C2F0F
:1008F00080910201909103010E94D81E882329F063
:100900008C2F0E94400D0E94B10D8C2F0E94390D3A
:10091000BBCF80E28C0F883048F4C77081E001C003
:10092000880FCA95EAF70E94610DAECFEBE5EC0F98
:10093000E33040F4F0E0E257FE4F808190E0CF9149
:100940000C949A1EE8E5EC0FE73150F4F0E0EE0F5E
:10095000FF1FE05AFE4F80819181CF910C94B01E11
:10096000CD3E30F08C2F0E941F17CF910C94F217C0
:10097000CF910895882309F452C0823871F40E94FF
:100980006B1E81FF4CC089E30E94390D0E94B10D9E
:1009900089E30E94400D0C94B10D833859F40E94F4
:1009A0006B1E80FF3CC083E50E94390D0E94B10D93
:1009B00083E5EFCF843859F40E946B1E82FF2FC06D
:1009C00087E40E94390D0E94B10D87E4E2CF9CEFCD
:1009D000980F913AF0F290E2980F983050F48770A7
:1009E00091E001C0990F8A95EAF7892F0E94670D5F
:1009F000D2CF9BE5980F933020F490E080E00C94E8
:100A00009A1E98E5980F973120F490E080E00C94BE
:100A1000B01E8D3E20F00E9479170C94F2170895B5
:100A20001F93CF93DF93182FEB010E942804209788
:100A300031F4812FDF91CF911F910C94BA048FE98B
:100A40009FE00197F1F700C000002197F0CF70E020
:100A500060E0893311F460E570E00C9410058823A0
:100A600021F00E94610D0C94B10D0895882321F0AE
:100A70000E94670D0C94B10D0895BF92CF92DF9242
:100A8000EF92FF920F931F93CF93DF936C01D62FBA
:100A9000C72FFC011281058102950F700E94570D2E
:100AA000E82E8823B9F0E12E1123A1F08C2F807F4E
:100AB000803421F080E28D0F8830B0F080918C027C
:100AC00082FD12C082E00E94020E0E94570D91E04A
:100AD000E82EE926BC2EB2949FE0B922EB2DF0E07F
:100AE000E757F84D0C941527E12CF4CF0C2F0F701D
:100AF000C07F11F00295007F112399F0002359F077
:100B000080E28D0F883010F0D11107C0802F0E9435
:100B1000610D0E94B10D8D2F60C0802F0E94740D59
:100B2000F8CF8D2F0E94BA04002379F080E28D0F58
:100B3000883010F0D11104C0802F0E94670D03C0CF
:100B4000802F0E947A0D0E94B10D2B2D2850330B5F
:100B50002430310520F40E946B1E0E94DD03EE203C
:100B600009F4B2C10E94530D80FDAEC1F60112829C
:100B70000E944D0D0E949008C6010E9485070E94A8
:100B80004D0DDF91CF911F910F91FF90EF90DF906E
:100B9000CF90BF900C94B108FC2FFF70FF2EC07F48
:100BA000C03219F0F29480EFF822DD2341F0D13009
:100BB000E9F1112309F445C00023E9F1ACCF80919C
:100BC0008C0282FF15C0112359F0FF2029F08F2DD0
:100BD0000E94610D0E94B10D80E00E942804B5CFF3
:100BE00080E00E94BA04FF2009F4AFCF8F2DA5CF7B
:100BF000112381F0011106C00E94940D8F290E94DB
:100C00002F05A3CF0130C1F70E94940D8F290E94B8
:100C10009A0D9BCF011106C00E94A70D8F2D0E9437
:100C2000360593CF013009F490CFF6CF112329F088
:100C3000063008F08ACF8F2DE2CF053008F085CF3F
:100C4000EDCF002359F3D93349F42FEF37EE83E08A
:100C5000215030408040E1F700C000008D2F0E94FD
:100C6000BA0473CF8C2F86958695837069F0813096
:100C700009F06BCF8D2F9C2F9370111102C090E063
:100C800080E00E94B01E61CF8D2F9C2F93701111B8
:100C900002C090E080E00E949A1E57CF8D2F112352
:100CA00029F00E941F170E94F2174FCF0E94791758
:100CB000FACF8C2F837009F041C0111146CF4D2F10
:100CC000429546954770440F440F0D2F0F7010E06A
:100CD00030E020E0042E04C0000F111F221F331F3C
:100CE0000A94D2F760E070E0CB01D4FF0FC06FE050
:100CF00070E080E090E004C0660F771F881F991FA6
:100D00004A95D2F76095709580959095C695C69551
:100D1000C370602B712B822B932BC23049F058F497
:100D2000C13019F00E94420810CF0E9430080DCF48
:100D30000E9454080ACF0E942E0807CF86951123DF
:100D400011F08C2F8170882309F4FFCE4D2F42952E
:100D500046954770440F440F0D2F0F7010E030E0A0
:100D600020E0042E04C0000F111F221F331F0A941D
:100D7000D2F760E070E0CB01D4FF0FC06FE070E00D
:100D800080E090E004C0660F771F881F991F4A9586
:100D9000D2F76095709580959095C695C695C3706D
:100DA000602B712B822B932BC23049F058F4C13049
:100DB00019F00E940709C9CE0E94F508C6CE0E940C
:100DC0001909C3CE0E946A08C0CECF70112329F042
:100DD0008C2F0E9490088D2F12CF8D2F0E943605E8
:100DE0008C2F0E94B108B1CED23F41F160F4D03FC8
:100DF000B9F0D13F81F0112309F446C001118BCE27
:100E00008C2F8F711FC0D33F01F1D43FA1F7809188
:100E10008C0282FF24C08C2F8F71112311F312C01A
:100E2000112341F0053008F090CE8C2F8F710E9475
:100E3000D4088BCE063008F088CEF7CF8C2F8F7178
:100E40001111CFCF0E94900880CE112329F08C2F52
:100E50008F710E947B0879CE0E94760876CE11238E
:100E600049F0CF718C2F0E94900863E08C2F0E9474
:100E7000E70D6BCE81E00E94020E023008F465CED1
:100E800082E00E94020E61CE002359F0D93309F0AE
:100E9000E5CE9FEFE7EEF3E09150E040F040E1F760
:100EA000DBCE8C2F8F719DCF4C2F4F706D2FC601D5
:100EB0000E94D80F0E94F30948CE4C2F4F706D2F1F
:100EC000C6010E94DB0F41CEDF91CF911F910F91A0
:100ED000FF90EF90DF90CF90BF9008950F931F93F6
:100EE000CF93DF93EC01688179818A810E94CF09D9
:100EF0008C010E942B090E942D08B801CE01DF91C0
:100F0000CF911F910F910C943D05CF93DF93EC018E
:100F10008B819C81892B29F08881998189238F3F3E
:100F200059F4DF91CF910895CE010E946E07CE0152
:100F3000DF91CF910C94DC02CE010E940503811158
:100F4000F3CF0E94570D882361F38A81882349F3E8
:100F500080918C0282FDE5CF82E0DF91CF910C94ED
:100F6000020E882321F00E94740D0C94B10D089597
:100F7000882321F00E947A0D0C94B10D089590E021
:100F800080E00E949A1E90E080E00E94B01E0E94C5
:100F9000810D0E94910D0E94B10D0E9419190C94AF
:100FA000F2170E94470D0C94BF070E94710D0C941C
:100FB000D107E92FE295EF70E250EE3070F4F0E0E7
:100FC000E756F84D0C941527803F19F020F4883E21
:100FD00020F481E00895843FE1F380E00895883EA5
:100FE000C0F3813FD1F7F5CF93FB882780F90895AF
:100FF000FC01808191810E94C5090C94D907CF938F
:10100000DF9300D000D00F92CDB7DEB70F900F90D6
:101010000F900F900F90DF91CF910895CF93DF93B2
:1010200000D000D000D0CDB7DEB726960FB6F8942A
:10103000DEBF0FBECDBFDF91CF91089508950C9410
:101040001E080E941F086093E4017093E5018093DD
:10105000E6019093E7010C94BF0708950C942108D2
:101060000F931F930091E4011091E5012091E60197
:101070003091E701602B712B822B932B1F910F91E5
:101080000C9421080F931F930091E4011091E50146
:101090002091E6013091E70160237123822393239D
:1010A0001F910F910C9421080F931F930091E4015D
:1010B0001091E5012091E6013091E7016027712749
:1010C000822793271F910F910C9421080C941E08DE
:1010D0000C9466080E9468086093E0017093E10137
:1010E0008093E2019093E3010C94BF0760E070E00D
:1010F000CB010C946A080F931F9341E050E060E02D
:1011000070E08A019B0104C0000F111F221F331FD2
:101110008A95D2F7C901B8011F910F910C946A0802
:101120000F931F9341E050E060E070E004C0440F73
:10113000551F661F771F8A95D2F78091E001909125
:10114000E101A091E201B091E3018A019B01082B2A
:10115000192B2A2B3B2BC901B8011F910F910C941D
:101160006A080F931F9341E050E060E070E004C014
:10117000440F551F661F771F8A95D2F7CB01BA011E
:1011800060957095809590950091E0011091E10136
:101190002091E2013091E3016023712382239323A4
:1011A0001F910F910C946A080F931F9341E050E038
:1011B00060E070E004C0440F551F661F771F8A95DA
:1011C000D2F78091E0019091E101A091E201B0910C
:1011D000E3018A019B01082719272A273B27C90118
:1011E000B8011F910F910C946A080F931F930091FF
:1011F000E0011091E1012091E2013091E301602BC7
:10120000712B822B932B1F910F910C946A080F93D3
:101210001F930091E0011091E1012091E2013091D2
:10122000E30160237123822393231F910F910C9478
:101230006A080F931F930091E0011091E101209142
:10124000E2013091E30160277127822793271F91E4
:101250000F910C946A080895E92FEE0FEE0F9E0F80
:10126000890F982F977041E001C0440F9A95EAF7D3
:1012700086958695869595E0899FF0011124E9531E
:10128000FE4F30E020E070E05191DF011197CB017B
:10129000022E02C0969587950A94E2F78170819597
:1012A0008527842385278C932F5F3F4F2530310579
:1012B00059F70895E92FEE0FEE0F9E0F890F982F23
:1012C000977086958695869525E0829FF00111247A
:1012D000E953FE4F50E040E080E0219130E0092EDC
:1012E00002C0369527950A94E2F721703327042E21
:1012F00001C0220F0A94EAF7822B4F5F5F4F4530FF
:10130000510559F70895BF92CF92DF92EF92FF9265
:101310000F931F93CF93DF938C01C090E001D09087
:10132000E101E090E201F090E3018091E40190910D
:10133000E501A091E601B091E701C82AD92AEA2A7D
:10134000FB2ACFE1D0E0BC2ED701C6010C2E04C091
:10135000B695A795979587950A94D2F780FD0EC00C
:10136000219788F7B12C8B2DDF91CF911F910F9191
:10137000FF90EF90DF90CF90BF900895B8018C2F31
:101380000E940B11019761F3EECFCF93DF93EC0135
:101390000E948309BE01DF91CF910C940B111F9322
:1013A000CF93DF93EB019091C601992331F0CB01EC
:1013B000DF91CF911F910C94C509882379F0CB015F
:1013C0000E948309182F682FCE010E942C09BE01AC
:1013D000812FDF91CF911F910C940B11CB010E94B3
:1013E0005A09182FF4CFEF92FF920F931F93CF93C8
:1013F000DF938C01892B81F0F12CEE24E394E8013A
:101400002196F8018491843770F4843008F05FC02D
:101410008130B1F08230A1F1DF91CF911F910F9116
:10142000FF90EF900895853709F44CC008F43DC053
:101430009CE7980F903780F78F770E94BA0449C0D5
:101440000E5F1F4FFE01849190E2980F983060F478
:101450008770FE2D01C0FF0F8A95EAF78F2F0E943B
:10146000840D0E94B10D02C00E9428048F2D81506E
:1014700030F2EFE9FFE03197F1F700C00000F7CF5D
:101480000E5F1F4FFE01849190E2980F983050F448
:101490008770FE2D01C0FF0F8A95EAF78F2F0E94FB
:1014A0008A0DDFCF0E94BA04E1CF0E5F1F4FFE010D
:1014B000C491C150D8F28FE99FE00197F1F700C0C5
:1014C0000000F7CF0E5F1F4FFE01F490CFCF0E94B8
:1014D00028048E01CBCF1F93CF93DF93C091E801F7
:1014E00016E08091E9018C1304C0DF91CF911F9128
:1014F0000895D0E01C9FF0011D9FF00D1124E651CE
:10150000FE4F4081518162817381848195810E9467
:101510000E082196C770E5CF40911A0250911B0228
:1015200060911C0270911D0280911E0290911F0219
:101530000C940E08FF920F931F93CF93DF9380912B
:101540001F02807FD1F480911C028823B1F080912A
:10155000E8011091E90160911A0270911B02A091BB
:101560001D02B0911E02062F0723C0910001D091E9
:10157000010196E0F92E181306C0DF91CF911F915B
:101580000F91FF90089590E0109711F00F3F19F41C
:1015900001968770F0CFF89E9001F99E300D1124CE
:1015A000F901E651FE4F41814713F2CF40814613C6
:1015B000EFCF42814111ECCF438154814A1B5B0B39
:1015C0004C175D0728F780911F028F708061809310
:1015D0001F02F901E151FE4F80818F70806180838D
:1015E0008AE192E00E948507DF91CF911F910F91D0
:1015F000FF900C946B0AAF92BF92CF92DF92EF9262
:10160000FF920F931F93CF93DF93CDB7DEB7619710
:101610000FB6F894DEBF0FBECDBF8C0185E0F80198
:10162000DE011D9601900D928A95E1F7F801E280A6
:101630008AE1C82E82E0D82E60911D0270911E02B0
:101640006115710509F45FC190911A0220911B0286
:10165000892F82238F3F09F456C140815181A38095
:10166000B480F0901C02F501E61BF70BBF01E0917E
:101670000001F0910101FF2009F4F6C080911F02E2
:10168000382F307F6E177F0708F0AFC0311179C057
:10169000FE2C251323C0941321C0E1101FC08F70AE
:1016A000806180931F020E948C0AC6010E948507F8
:1016B00080911F02F80185838F2D61960FB6F894F3
:1016C000DEBF0FBECDBFDF91CF911F910F91FF9075
:1016D000EF90DF90CF90BF90AF900895AB2829F0A6
:1016E000842F85238F3F09F027C180E0F82FF17008
:1016F000DF2E80FF3CC08091E8012091E90136E0B7
:10170000821315C04D875E878D859E850E94C50911
:10171000292F22952F702230F0F0243018F59F7079
:10172000F1F0F8019581907FD1F4D12C1EC090E0AA
:10173000389FF001399FF00D1124E651FE4F618171
:10174000651306C06081641303C062816E110FC00F
:1017500001968770D5CF9F7011F0882331F3805E9A
:10176000883018F3C8010E948507FD2CA5CFEE2014
:1017700009F4A2CF80911F02816080931F02F12C97
:101780009BCF251306C0941304C0F801EE2009F482
:1017900087C0C8010E94F807882319F1EE2009F1DB
:1017A00080911F02803270F020911A0230911B024A
:1017B00038872F831986BB86AA868C87CE01079629
:1017C0000E94850786E0F801AAE1B2E001900D923F
:1017D0008A95E1F70E949A0A0E948C0AFF24F394EA
:1017E0006BCFC8010E948507F9CF311113C07A2D44
:1017F000B98AA88A6E2D89890E94FF078AE192E042
:101800000E94850786E0F60111928A95E9F70E9409
:101810008C0AB5CF25130FC094130DC0E1100BC077
:10182000F8018583C8010E94850786E0F6011192C0
:101830008A95E9F741CFC8010E94F807882389F209
:10184000EE2079F280911F02803208F4BBCF209104
:101850001A0230911B023A8329831B82BD82AC821B
:101860008E83CE010196ACCF6E177F0708F03EC085
:10187000FE2CEE2009F4B5CF25132AC0941328C0FE
:1018800080911F0280FD1BC0982F907FC1F0F8014E
:101890008583903F31F0982F907F905F8F70892BD8
:1018A0008583C8010E94850786E0F801AAE1B2E0BD
:1018B00001900D928A95E1F70E948C0AFDCE86E098
:1018C000F801AAE1B2E001900D928A95E1F7F4CE19
:1018D000C8010E94F807811175CF80911F028160B5
:1018E00080931F02C8010E948507E6CE7A2DB98A2F
:1018F000A88A6E2D89890E94FF0786E0F601119261
:101900008A95E9F7D9CFEE2009F46BCFC8010E9480
:10191000F807F82E882309F464CF86E0F801AAE1DD
:10192000B2E001900D928A95E1F78AE192E00E947F
:1019300023040E949A0AC0CF81E08E25D7CE1F9340
:10194000CF93DF93CDB7DEB72C970FB6F894DEBFF9
:101950000FBECDBF4F83588769877A878B879C8757
:10196000CE0107960E94FB0A882369F08A859B8531
:10197000892B39F04F815885842F85238F3F09F0BB
:1019800071C016E05FC086E0FE013796DE01119659
:1019900001900D928A95E1F78A859B85892B89F3C1
:1019A0008F81988589238F3F61F32091E90130E091
:1019B000C9010196877099274091E80148171906D7
:1019C00071F40E94D5071092E9011092E80186E0B7
:1019D000EAE1F2E0DF011D928A95E9F7D2CF96E0C5
:1019E000929FD001939FB00D1124A651BE4FFE01CE
:1019F000319601900D929A95E1F78093E9010E944A
:101A00006B0ABFCF819FC001112486519E4F0E9457
:101A1000FB0A8823E9F0E091E8011E9FF001112400
:101A2000E651FE4F408151816281738184819581AD
:101A30000E940E088091E80190E001968770992736
:101A40008093E8018091E8019091E9018913DACF50
:101A50002C960FB6F894DEBF0FBECDBFDF91CF91AD
:101A60001F91089569857A858B859C850E940E0853
:101A700088CF682F80910201909103010C940E1F72
:101A8000682F80910201909103010C94101F8091A6
:101A90000201909103010C94121F80912002859500
:101AA000859585950895809120028770089590917D
:101AB0002002977081E009F480E0089580912C0263
:101AC000089590912C02892B80932C020895809583
:101AD00090912C02982390932C02089580932C02CD
:101AE000089510922C02089590912B02892B8093D7
:101AF0002B020895809590912B02982390932B02AE
:101B0000089510922B02089590912A02892B8093B8
:101B10002A020895809590912A02982390932A0290
:101B2000089510922A02089580912102089508953F
:101B30000C94970D90918C0292FD08C09091210217
:101B4000981721F0809321020C94980D08958091AC
:101B50002102882329F01092210280E00C94980D34
:101B60000895E0910201F091030180912C0280839D
:101B7000E0910201F0910301808190912B02892B69
:101B80008083E0910201F0910301808190912A020B
:101B9000892B808390912102992381F0E0910201A9
:101BA000F09103018081892B8083809102019091C3
:101BB00003010E94C61E81110E94A70D809102019F
:101BC000909103010C94811E08950C94E40D909162
:101BD0008C0292FD10C098E0899F90011124622B25
:101BE000609320020E94900880912002859585953F
:101BF00085950C94E50D0C9490081092200280E0DD
:101C00000C94E50D90912002809589238093200209
:101C1000282F277091F4282F082E000C330B9217D1
:101C2000130659F090918C0292FD07C08595859519
:101C300085950E94B1080C94FD0D089590918C0239
:101C400092FB222720F9281769F080FB92F99093E4
:101C50008C0280918B0290918C020E94690E82E02E
:101C60000C94020E089580918C0282FB882780F9E3
:101C700091E089270C941E0E81E00C941E0E80E0EA
:101C80000C941E0E6FEF7FEF90E080E00C947127B4
:101C900090E080E00E944D2721E0893E9E4F09F0B0
:101CA00020E0822F089582E090E00C94452783E0A5
:101CB00090E00C944527CF9384E090E00E94452764
:101CC000C82F82E290E00E944527982F8C2FCF9159
:101CD0000895CF93C92F682F84E090E00E94532786
:101CE0006C2F82E290E0CF910C945327AB01BC01A2
:101CF0008FE090E00C946527AB01BC0183E190E09C
:101D00000C94652760E070E0CB010C947C0E60E0E1
:101D100070E0CB010E94760E0C94820E69EE7EEF8D
:101D200090E080E00E94712760E082E090E00E94F5
:101D3000532760E083E090E00E9453271092E40173
:101D40001092E5011092E6011092E70160E084E054
:101D500090E00E94532760E082E290E00E945327C7
:101D600060E085E090E00E94532760E086E090E02C
:101D70000E9453276FEF87E090E00E94532740E0D6
:101D800050E0BA0188E090E00E94652760E08DE0B5
:101D900090E00E94532740E050E0BA0188E190E0D3
:101DA0000E94652760E087E190E00E94532740E0B1
:101DB00050E0BA018CE190E00E94652770E060E09D
:101DC00080E290E00E94712740E050E0BA0188E193
:101DD00090E00E9465270C94870E0C948E0E8EE086
:101DE00090E00E94452791E0811101C090E0892F89
:101DF0000895682F8EE090E00C9453270E94B51F41
:101E000060933A0270933B0280933C0290933D02B0
:101E100060933602709337028093380290933902B0
:101E2000089585B7806885BF85B7806885BF0895A8
:101E3000089508950C94180F08950C941C0F0E9497
:101E4000110F8AE292E10E94611E0E94190F0C9408
:101E50001A0F0C945214089508950E942B0F0C949D
:101E60002C0F0E94A01F0E94E9110E94DE120E9406
:101E700027190C941D0FAF92BF92CF92DF92EF9271
:101E8000FF920F931F93CF93DF93CDB7DEB72A97BF
:101E90000FB6F894DEBF0FBECDBF0E94C6138111EE
:101EA0000E94FE0E8EE2A82E82E0B82E10E000E026
:101EB000C02E802F0E947C12E82EF501F1905F0168
:101EC000F81609F44DC080913E0281FD0E948212F5
:101ED0008F2D8E25D12CFF24F394982F9F21D9F19B
:101EE0000E94290F882399F0DE82CF82EF2081E0C3
:101EF00009F480E088870E94A91F8160782F9A8763
:101F000089874E815F8168858A850E94E503F80193
:101F1000E25DFD4F8081F826F0820E940D180E943C
:101F20006B1E90912D02891791F10E946B1E809378
:101F30002D022A960FB6F894DEBF0FBECDBFDF91FB
:101F4000CF911F910F91FF90EF90DF90CF90BF90B6
:101F5000AF900C94DD03D394FF0CF5E0DF12BDCFFE
:101F60000F5F1F4F0830110509F0A2CF8FEF898353
:101F70008A831B820E94A91F8160782F9D838C8396
:101F800049815A816B818D810E94E503C6CF2A96D3
:101F90000FB6F894DEBF0FBECDBFDF91CF911F917A
:101FA0000F91FF90EF90DF90CF90BF90AF9008958A
:101FB00090E080E008950895972F70E025E0929FCB
:101FC000600D711D1124FB0198E2899FE00DF11D48
:101FD0001124EE0FFF1FE455FF4F85919491089552
:101FE000FC01EE0FFF1FE456FD4F8591949108957B
:101FF000CF93DF930E940F11EC01811520E592072A
:1020000008F042C0811530E4930708F0BDC0883E57
:10201000910528F5803E910508F09DC0883A91050C
:1020200088F4853A910508F08FC08130910509F454
:1020300092C0009709F48FC0049708F08CC0D0E0DC
:10204000C0E089C08F3B910508F489C0805C91098C
:10205000C03CD105A0F30E94F00FEC017CC08115BB
:10206000904250F4C11581E0D80708F074C0CD3E0D
:10207000D10528F3D0656FC0C11590E3D90708F0EA
:1020800079C0CE019F70E7CF811525E5920758F5FD
:10209000811534E5930708F0A6C0811542E5940741
:1020A00050F4C11581E5D80708F471C0DC2FCC27A6
:1020B000C16FD06A50C0982F969596959E01237057
:1020C0003327C115D34508F07FC0C1E0D0E002C07E
:1020D000CC0FDD1F2A95E2F720E2929FC001112468
:1020E000C82BD92B6FC0C11589E5D807A8F4C11535
:1020F00098E5D90708F07CC0C11526E5D20708F09D
:102100009ECF8C2F0E94A611C82FD0E0DC2FCC27A9
:10211000CC27DF71D0621FC0C1153AE5D30708F4A0
:102120006CC0CE0190568115904208F088CF8D2F5B
:102130008F710E94A61190E0982F882788279F71A1
:102140009C012C2BE901E6CFC55AD0E0C154DE4FEB
:10215000C881D0E0D064CE01DF91CF910895C85AF4
:10216000D0E0CC0FDD1FCF56DE4F0990D881C02DB7
:10217000D464F1CFCE019927D3FF03C0EC01D86C12
:10218000EACFEC01D06CE7CFDF70D06AE4CFCE01AC
:10219000E4E096958795EA95E1F783702C2F2695D4
:1021A0002695237090E2299F90011124382B8C2FC3
:1021B0008370C1E0D0E002C0CC0FDD1F8A95E2F74A
:1021C000C22BD32BDC68C7CFC1E0D0E002C0CC0F5C
:1021D000DD1F2A95E2F730E2939FC0011124C82B3E
:1021E000D92BDA68B8CFD82FCC27C46FD06AB3CF39
:1021F000DC2FCC27C06FD06AAECF8C2F8F700E949F
:10220000A61134E0D695C7953A95E1F7CF709C2F8B
:10221000EC01D069A0CF0E94DC0F0C94F80F82383B
:102220009105B1F1B0F48133910509F475C048F41A
:102230008932910509F469C08A32910509F473C0A5
:1022400008958533910509F459C08933910501F149
:102250000895833E9105A9F138F4803E9105F9F087
:10226000823E910549F10895863E9105A9F1873E88
:102270009105C9F1843E910519F520918C0221FF49
:102280001FC080918B0284FD14C087EE90E00895FA
:1022900020918B022370A1F080EE90E008952091B0
:1022A0008B0220FD47C030918C0230FF09C024FF13
:1022B00044C090E080E004C020918B0222FDF7CF63
:1022C000089520918B0222FD3BC030918C0230FD9D
:1022D000E3CF24FFF5CFEDCF20918B0223FFF0CF8A
:1022E00024FDE7CFD2CF20918B0223FD2CC030916B
:1022F0008C0231FFEECF84EE90E0089520918B02A6
:1023000025FFDECF89E290E0089520918B0225FF22
:10231000D7CF85E390E0089520918B0226FFD0CFA0
:102320008AE290E0089520918B0226FFC9CF81E3D5
:1023300090E0089589E390E0089583EE90E0089599
:1023400082EE90E0089586EE90E0089590918B02E1
:1023500092FF06C0282F28712830F9F4877F846007
:1023600093FF06C0282F28712831F1F4877E8461FD
:1023700020918C0220FF06C0382F38713830D9F4F4
:10238000877F816021FF06C0282F28712831D1F472
:10239000877E816194FD877E0895282F24712430E3
:1023A000F9F68B7F8860DCCF282F2471243101F768
:1023B0008B7E8861DDCF382F3171313019F78E7FF8
:1023C0008860E0CF282F2171213121F78E7E88612E
:1023D000E1CF109287021092880210928902109227
:1023E0008A020895CF92DF92EF92FF926B017C01F7
:1023F0000E94521481110EC00E94B51FC61AD70A3E
:10240000E80AF90AC0928702D0928802E092890213
:10241000F0928A02FF90EF90DF90CF9008950F9393
:102420001F930E945214882321F01F910F910C9446
:10243000B51F0E94B51F009187021091880220915C
:10244000890230918A02600F711F821F931F1F91B2
:102450000F91089580E008950C94420ECF930E944E
:10246000C6138FE39CE90197F1F700C000000E94BA
:10247000C6130E945014C4E08111C0E08C2F0E944A
:102480007C1290E002C095958795CA95E2F780FF8F
:1024900005C00E942C12CF910C941020CF9108956A
:1024A0000C942E120E94480E811102C00E94ED0E63
:1024B0000E94530E80933E020E945B0E90938C020A
:1024C00080938B020E9450120E94570E682F70E07A
:1024D00090E080E00E942E086091E0017091E1019F
:1024E0008091E2019091E3010C94680808950C94A6
:1024F000761208950C947912E82FF0E0EB56FD4F18
:1025000080810895089508950C9483121F93CF93AA
:10251000DF9324E031E0C1E0D0E0D90150E040E0B9
:102520008D918F3F91F0E82FE295EF70F0E011A1CF
:102530008F70BE0101C0660F8A95EAF7962F9095BD
:10254000912391A382A1862B82A34F5F5F4F4530D9
:10255000510531F72B5F3F4F81E02C323807E9F608
:10256000DF91CF911F910895CF93DF93AC01A62FF8
:10257000B0E085E0689FF0011124EC5FFE4F75E04C
:1025800081E060E091919F3F81F0C92FC295CF70AB
:10259000D0E028A130E09F7002C0359527959A952C
:1025A000E2F7982F20FD90E0692B880F715051F7CA
:1025B000A40FB51F6C93DF91CF910895CF93DF9354
:1025C000CDB7DEB7A8970FB6F894DEBF0FBECDBF6C
:1025D0000E946A1480912C01811149C0FE017596F8
:1025E00084E1DF011D928A95E9F782E3898384EF14
:1025F0008A8385EF8B8386EF8C8387EF8D8381E9D8
:102600008E8383E98F8381E3888783E3898786E3E9
:102610008A8786EC8B8787E98C8786E68D8784E9B5
:102620008E8780E98F8785E3888B84E3898B8FEFA2
:102630008A8B8B8B8C8B7497A4E0B1E0CE0189964A
:1026400020812C93218111962C931197228112962F
:102650002C931297238113962C931397248114960D
:102660002C931497359615968E179F0749F78091EE
:102670002C0194E0811190E090939E0284E0891BEC
:1026800080939D020E94861288E0E5E9F2E0DF0176
:10269000982F1D929A95E9F7EDE8F2E0DF011D927F
:1026A0008A95E9F784E00E9419140E94E702A8962F
:1026B0000FB6F894DEBF0FBECDBFDF91CF910C9463
:1026C0007414EF92FF921F93CF93DF9300D000D04A
:1026D000CDB7DEB70E945214182F60919E02882356
:1026E00009F447C019821A821B821C82862F90E04F
:1026F0009E012F5F3F4F7901B9018B569D4F0E947C
:1027000082148823E9F080919D0290E044E050E03B
:10271000B7018B569D4F0E942F2721E020933F0247
:10272000892BC9F410E00E94EF02812F0F900F90C7
:102730000F900F90DF91CF911F91FF90EF90089530
:1027400080913F02882371F384E0F70111928A950A
:10275000E9F710923F02E0919D02F0E0EB56FD4F49
:1027600089819A81AB81BC8180839183A283B38369
:10277000DACF70E06B567D4F80919D0290E08B56D2
:102780009D4F0E940F150E948412CFCFEF92FF92AF
:102790000F931F93CF93DF93CDB7DEB728970FB674
:1027A000F894DEBF0FBECDBF8E010F5F1F4F88E0D4
:1027B000F80111928A95E9F7F12C6F2DC8010E945A
:1027C000B412F394F4E0FF12F8CF48E050E0B801FF
:1027D0008DE892E00E942F277C0121E0892B09F4EB
:1027E00020E0E114F10441F088E0F801ADE8B2E046
:1027F00001900D928A95E1F760919E0270E06B5610
:102800007D4F44E08DE892E00E941A1481E090E050
:10281000EF2811F40E94611328960FB6F894DEBFDA
:102820000FBECDBFDF91CF911F910F91FF90EF9021
:1028300008950895FF920F931F93CF93DF93F82E7F
:10284000092F162FD72FC42F222349F081E0809320
:1028500042020E94A91F90934102809340028091FE
:1028600042028823A1F080914002909141020E948F
:10287000C11F059760F0EF2DF02FA12FBD2FCE0FB8
:10288000DF2FD11DEC17FD0741F410924202DF91BA
:10289000CF911F910F91FF90089581918D93F2CF69
:1028A0000C94EF0E80914502811107C00E94F4261E
:1028B000882351F081E08093450281E090914502A8
:1028C000913009F080E0089582E0809345020E94F3
:1028D000EF26F3CF0E94501480932C010E945214D3
:1028E00081110C94B81408950E945214811102C0F1
:1028F0000C94BA14089581E0909146029A3008F041
:1029000080E008950F931F93CF93DF93EC018B0129
:10291000809146028A30B8F4B801CE010E940D15AC
:10292000C82F811122C0809146028F3FB9F40E94C6
:10293000A91F90934402809343028C2FDF91CF9183
:102940001F910F91089580914302909144020E943B
:10295000C11F843F914000F7C0E0EFCF8F5F8093AD
:1029600046028A3020F7C1E0E8CF10924602E5CF58
:102970000C94A01C0C94A31CEF92FF920F931F9336
:10298000CF93DF937901C82F880FDD0B41155105D7
:10299000A9F08AE08C9FF0018D9FF00D1124E35D7A
:1029A000FE4F83819481895B9D4F228130E04217E5
:1029B000530708F49A01A9010E943C27CE010E9406
:1029C000AD1D892B11F501151105E9F08AE08C9FE9
:1029D000F0018D9FF00D1124E35DFE4F458150E025
:1029E0000417150708F4A8018AE08C9FF0018D9F59
:1029F000F00D1124E35DFE4F66817781695B7D4FA9
:102A0000C7010E943C2781E001C080E0DF91CF91A7
:102A10001F910F91FF90EF9008950C942D160C9438
:102A200049160F931F93CF93DF9300D000D0CDB7FB
:102A3000DEB760915C0270915D0280915E029091C0
:102A40005F020E94D01F11E0643671058105910577
:102A500018F10E940F126E5F7F4F8F4F9F4F698357
:102A60007A838B839C8310E000E030E020E044E038
:102A700050E0BE016F5F7F4F82E00E94BC14182FB0
:102A8000882351F00E94B51F60935C0270935D0231
:102A900080935E0290935F02812F0F900F900F90B2
:102AA0000F90DF91CF911F910F910895AF92BF9238
:102AB000CF92DF92EF92FF920F931F93CF93DF930A
:102AC00000D000D00F92CDB7DEB75B01E090C2011D
:102AD000F090C30101E010E09E012B5F3F4F50E0FA
:102AE00040E070E060E080E00E94BC14182F882372
:102AF00009F44BC067018FEFC81AD80A60915802D9
:102B00007091590280915A0290915B020E94D01FED
:102B1000643671058105910580F104E010E09E01A5
:102B20002F5F3F4F50E040E070E060E081E00E94A6
:102B3000BC14F82E64E070E0C6010E94281911E070
:102B40009D81981310E01F2159F10E94B51F6093D9
:102B500058027093590280935A0290935B028981C4
:102B60009A81AB81BC818093540290935502A093CB
:102B70005602B093570211E013C064E070E0C60142
:102B80000E9428199D818913C8CFF7018181928104
:102B9000A381B48189839A83AB83BC831111DFCF76
:102BA0008091540290915502A0915602B091570223
:102BB000F50180839183A283B383812F0F900F90BF
:102BC0000F900F900F90DF91CF911F910F91FF9079
:102BD000EF90DF90CF90BF90AF900895AF92BF92EB
:102BE000CF92DF92EF92FF920F931F93CF93DF93D9
:102BF0007C015B016A010E947B1401E010E08823E4
:102C000011F00AE010E0C1E0D0E0F894B501C7018E
:102C1000F60109957894811104C021960C171D07BF
:102C20005CF4DF91CF911F910F91FF90EF90DF90B7
:102C3000CF90BF90AF900895CC9F9001CD9F300D65
:102C4000300D112490E080E045E34A95F1F7000053
:102C5000019682179307C1F7D8CF0F931F93CF9395
:102C6000DF93EC018B0146E555E10E94EE158823C8
:102C700051F041E155E1B801CE01DF91CF911F91B3
:102C80000F910C94EE1580E0DF91CF911F910F9181
:102C900008950F931F93CF93DF93F894C091C201CF
:102CA000D091C301CE01019624E0FB01DC0101902B
:102CB0000D922A95E1F764E070E00E94281988835C
:102CC0007894F8946D817E818F819885009150026F
:102CD00010915102209152023091530260177107F6
:102CE0008207930751F060935002709351028093D2
:102CF0005202909353020E94F2117894DF91CF9187
:102D00001F910F9108950E94C3210E94310F0C94CE
:102D1000CF210E94D3210E943B0F0C94ED210E94F1
:102D2000331F0E94AA210E941F0F0E9483160E9437
:102D300089160E942D0FFBCF8091660280FF12C082
:102D40006091500189E0689FB001112475956795E5
:102D50007595679560387105A8F561157105A1F144
:102D6000862F089581FF09C06091500189E0689F16
:102D7000B001112475956795EDCF6091500182FDEA
:102D80000AC0809165028823D1F090914F01609133
:102D90005001891728F089E0689FB0011124DACF2B
:102DA000869FB001112489E0869F9001879F300D96
:102DB0001124692F70E0C9010E940127CBCF69E07F
:102DC00070E0CECF8FE7089581E00895809166028C
:102DD00080FF0CC060914C0170E07595679575950A
:102DE00067956115710549F1862F089581FF06C029
:102DF00060914C0170E075956795F3CF60914C013F
:102E000082FD0BC0909164029923A1F060914B0167
:102E100080914C01961738F0682F70E0603871058A
:102E200000F38FE70895899FC001112470E00E948C
:102E30000127F4CF61E070E0D7CF81E008958D3EA7
:102E400031F40E949C16819580936A0208958E3E0B
:102E500019F40E949C16F8CF8F3E31F40E949C1604
:102E60008195809369020895803F19F40E949C1611
:102E7000F8CF893F29F40E94E61680936B020895EB
:102E80008A3F21F40E94E6168195F7CF8B3F31F4FB
:102E90000E94E616819580936C0208958C3F19F488
:102EA0000E94E616F8CF9FE0980F983070F4815F8B
:102EB000990B21E030E001C0220F8A95EAF780915A
:102EC0006802822B8093680208958D3F31F48091CF
:102ED000660281608093660208958E3F21F480919E
:102EE00066028260F7CF8F3FB9F7809166028460F7
:102EF000F1CF409169028D3E59F480916A0287FFBB
:102F00000DC010926A0241110BC01092650208C0F8
:102F10008E3E81F480916A0218169CF3442381F05E
:102F200080916B0290916C02892B09F05AC010922B
:102F3000640208958F3E49F447FFF0CF1092690272
:102F400080916A028111ECCFE0CF803F19F4141612
:102F5000ACF3E4CF90916B02893F29F41916F4F693
:102F600010926B02DBCF8A3F19F497FFD7CFF8CFCF
:102F700090916C028B3F29F497FFD0CF10926C0296
:102F8000CDCF8C3F19F41916CCF3C8CF9FE0980F22
:102F9000983090F4815F990B21E030E0B90102C0D4
:102FA000660F771F8A95E2F7CB01809590916802B2
:102FB000892380936802B2CF8D3F31F480916602FD
:102FC0008E7F80936602AACF8E3F21F480916602A5
:102FD0008D7FF7CF8F3F09F0A1CF809166028B7F65
:102FE000F0CF08950E94A91F9C01909169028091E1
:102FF0006A02982B21F03093630220936202909131
:103000006B0280916C02982B21F030936102209327
:10301000600287E692E00C948C1EEF92FF920F9371
:103020001F93CF93DF9300D000D000D0CDB7DEB791
:1030300086E0E7E6F2E0DE01119601900D928A95B6
:10304000E1F7E0906902F0906A0200916B02109142
:103050006C021092690210926A0210926B02109236
:103060006C028E2D8F2991F0809162029091630203
:103070000E94C11FAC0190916502992309F43FC0E1
:10308000809151018417150608F447C0802F812BC9
:1030900091F080916002909161020E94C11FAC0189
:1030A00090916402992309F477C080914D018417AF
:1030B000150608F47FC08091690290916A02892BFD
:1030C00090916B02892B90916C02892B11F00E94D8
:1030D000F21786E0FE013196A7E6B2E001900D926C
:1030E0008A95E1F726960FB6F894DEBF0FBECDBFE6
:1030F000DF91CF911F910F91FF90EF900895209154
:1031000052018AE0289F900111242417350708F006
:10311000BDCF9F5F9093650202C09F3FD1F7EE2025
:1031200059F00E949C169FEF1E140CF491E0899FA9
:10313000802D112480936902FF2059F00E949C1673
:103140009FEF1F140CF491E0899F802D1124809330
:103150006A0230916902332309F498CF20916A0200
:10316000222309F493CF45EB3403C00111249923A2
:1031700059F09093690245EB240390011124332305
:1031800039F030936A0282CF81E080936902F3CFF5
:1031900081E080936A027ACF20914E018AE0289FD5
:1031A000900111242417350708F085CF9F5F909375
:1031B000640202C09F3FD1F7002359F00E94E61637
:1031C0009FEF10160CF491E0899F802D11248093BD
:1031D0006B02112359F00E94E6169FEF11160CF4B2
:1031E00091E0899F802D112480936C0230916B02B5
:1031F000332309F460CF20916C02222309F45BCFC2
:1032000045EB3403C0011124992359F090936B02CC
:1032100045EB240390011124332339F030936C02E1
:103220004ACF81E080936B02F3CF81E080936C0200
:1032300042CF86E0E7E6F2E0DF011D928A95E9F7EA
:103240001092650210926402109266020895089529
:10325000FC01680F791F8FEF91E36E177F0709F468
:1032600008952191822728E030E087FF06C0880F6B
:10327000892721503109C9F7F0CF880FFACFCF93B2
:10328000DF93EC0197FF0CC0FB018281882341F0A2
:103290000E947D19CE019F770E94F4190E94CC19DB
:1032A00081E0DF91CF9108959091A102923069F46D
:1032B0008A3048F490E009966AE070E00E940127A5
:1032C000875A0C9427058650FCCF0C94CB038CE0D6
:1032D00090E00E94452790E0B0E0A0E08093A1023A
:1032E0009093A202A093A302B093A40208956091C8
:1032F000A1028CE090E00C9453270E947E1E8695DC
:1033000081708093A6020E947E1E81708093A0022D
:103310008091A102813039F48091A602882319F0AE
:1033200089E30E9427050E945E0D8093A5020E94FA
:10333000710D8091A102813089F0882359F082308B
:1033400091F0843021F18FE39CE90197F1F700C0FF
:103350000000089582EE0E942804F5CF88E193E0F2
:103360000E948B02F0CF8091A002811103C083E5FF
:103370000E94270582EE0E9428048FE39CE90197B2
:10338000F1F700C0000087E50E942705DCCF86EE3C
:103390000E94270588E1F8CF8091A102813071F069
:1033A000882341F08230A9F08430E1F08091A502B9
:1033B0000C946E0D82EE0E94BA04F8CF8CE20E944B
:1033C00027058091A602882389F389E30E942705B7
:1033D000EDCF82EE0E94BA048091A0028111E6CF67
:1033E00083E5F4CF88E2F2CF0F931F93CF93DF935F
:1033F0008C01CCE0D0E0C8010C2E02C096958795D8
:103400000A94E2F78F700E9454192497CC3F8FEFF3
:10341000D80789F7DF91CF911F910F9108950F93EE
:103420001F93CF93DF93EC018B01FB0182818823F3
:1034300061F00E945E0DCE01825E9C458530910553
:1034400020F48093A1020E947719B801CE01DF9188
:10345000CF911F910F910C943F19CF93DF93EC0103
:10346000FB018281882309F420C1C430FDE5DF0718
:10347000C8F5CB3F9CE5D90730F49E0122503C456E
:103480002431310598F50E945B0E90938C02809355
:103490008B02C031FCE5DF0709F4E0C008F061C031
:1034A000C8309CE5D90709F4CBC088F5C430FCE5E9
:1034B000DF0709F4B3C0E8F4C2309CE5D90709F48A
:1034C000A7C080918B028260C330DC4509F4A3C0A1
:1034D00080918B0290918C020E94690E0E94D50708
:1034E00080E004C0C236EDE5DE0769F2DF91CF91DE
:1034F000089580918B028061C630FCE5DF0709F4F6
:103500008AC008F48FC080918B02806284C0809151
:103510008B028D7FCC309CE5D90709F47CC070F418
:1035200080918B028C60CA30FCE5DF0709F473C020
:1035300008F48AC080918B028E7F6DC080918B02CF
:10354000877FCE309CE5D90709F465C080918B0256
:103550008B7FCF30DC4508F45EC080918B028F7E7C
:103560005AC0CD3FFCE5DF0709F474C040F5C43113
:103570009CE5D90709F48AC058F4C231FCE5DF079D
:1035800009F474C008F46EC080918B02837F43C03D
:10359000CB3F9CE5D90709F449C008F04DC0C531BF
:1035A000DC4509F095CF80918B0282FB992790F939
:1035B00021E0922790FB82F990FB83F92CC0C13067
:1035C0008DE5D80709F458C088F480918C02836097
:1035D000CF3FECE5DE0769F180918C028D7FC1154C
:1035E000DD4538F180918C028C7F23C0C3308DE59E
:1035F000D80709F458C008F452C0C236DD4509F0B6
:1036000067CF90918B02892F8F7E94FF806103C0DA
:1036100080918B02816080938B025ACF80918B02C4
:103620008460F9CF80918B028860F5CF80918C0205
:10363000816080938C024CCF80918C028260F9CFA4
:1036400080918B028064E7CF0E94D50780918B0226
:103650008068E1CF80918C028E7FEBCF80918B02CE
:103660008F7DD9CF80918B028F7BD5CF0E94D507DC
:1036700080918B028F77CFCF80918C02982F90957D
:1036800091708E7F892B90FB81F9D3CF0E94D50753
:1036900090918B02892F97FB87F98058BCCF81E0EE
:1036A0000E94F90E15CF80E0FBCF81E01FCFCF93B2
:1036B000DF93EB0186319C4511F50E945E0D9A81E6
:1036C000992399F08A7A91E009F490E090936D0241
:1036D000811109C089E20E94390D0E94B10D80E07C
:1036E000DF91CF91089585E3F6CF80916D0281112E
:1036F00004C089E20E94400DF0CF85E3FBCF81E05A
:10370000EFCF0F931F93CF93DF93C42FD22FFC01E2
:1037100082818823C9F0409370020E94A91F909370
:103720006F0280936E0280E28C0F883008F050C0E8
:10373000C77081E001C0880FCA95EAF7DF91CF9189
:103740001F910F910C942F0510917002141335C026
:1037500080916E0290916F020E94C11F863E91057A
:1037600060F5C0E2CD0F1D17B9F080E2810F8830FF
:1037700040F4177081E001C0880F1A95EAF70E94A3
:103780003605C83048F481E09D2F977001C0880F3E
:103790009A95EAF70E942F05802F0E942705C830CE
:1037A000B8F4D77081E001C0880FDA95EAF7DF91AD
:1037B000CF911F910F910C94360580E28C0F8830C9
:1037C00038F4C77081E001C0880FCA95EAF7EFCFDF
:1037D000DF91CF911F910F9108950F939C01CB0121
:1037E000243F4CE5340759F1A8F4293DFCE53F0797
:1037F00001F12A3D4CE53407D1F1283D3C4591F4D7
:1038000006E221EE41EE68ED7CE50E94811B80E03E
:103810000F910895263FFCE53F07E9F0B0F0273F00
:103820003C45F9F0FC018281882339F11092700245
:10383000EFCF07E225EE45EE69ED7CE5E6CF06E247
:1038400021EE40EE64EF7CE5E0CF07E225EE44EEAA
:1038500065EF7CE5DACF06E221EE42EE66EF7CE52D
:10386000D4CF07E225EE46EE67EF7CE5CECF08E247
:1038700021E045EE6AED7CE5C8CF81E0C9CF8EE15D
:103880004A9B02C08150E1F74A9BFECF08955A98A7
:1038900080E28A95F1F75A9A0895FC013BE03A9547
:1038A000F1F798E020E080E031E040E14A95F1F75F
:1038B000880F4A9B02C08160232742E04A95F1F7B6
:1038C000000040E14A95F1F7915079F790E19A951F
:1038D000F1F799B132E03A95F1F7000040E14A95ED
:1038E000F1F792FB992790F992272081920F90830C
:1038F0000895EF92FF920F931F93CF93DF930F9250
:10390000CDB7DEB719828C017C01E60EF11C0E15D5
:103910001F0561F481E09981911180E00F90DF91A2
:10392000CF911F910F91FF90EF9008950E943F1C3F
:10393000CE0101960E944D1CF80181938F01E7CFC3
:10394000529A5A9A089552985A9AEA9AE9E6F0E0F9
:1039500080818F7C808308956150770B91E001C056
:10396000990F6A95EAF720E031E0911108C022230F
:1039700091F05A9A80E28A95F1F75A980895492F62
:10398000482339F05A9A232740E24A95F1F7969551
:10399000ECCF5A98F9CF5A98EDCFFF920F931F931F
:1039A000CF93DF93EC018C01060F111DC017D107D7
:1039B00031F4DF91CF911F910F91FF900895F9900D
:1039C0000E94471C68E08F2D0E94AC1CEFCF1F9215
:1039D0000F920FB60F921124EF92FF920F931F9345
:1039E0002F933F934F935F936F937F938F939F9307
:1039F000AF93BF93EF93FF93CF93DF930F92CDB726
:103A0000DEB719820E943F1CCE0101960E944D1C18
:103A1000A82FA695A695A695282F229525709A2FB2
:103A20009570290F922F937026952695920F9827BF
:103A300097708981982B09F075C0A43008F072C086
:103A400080E18A95F1F75A9A529AB2E0BA95F1F765
:103A500000C05A98EA2EF12CEAE0AE9FD001112462
:103A6000A35DBE4F1896ED91FC9119973097B1F078
:103A70006091C2017091C30116962D913C911797E8
:103A8000260F371F13968D919C911497680F791FFD
:103A900015964C91159712968C9109958AE08E9DFA
:103AA000F0018F9DF00D1124E35DFE4F65816623CB
:103AB00051F02091C2013091C30186819781820F1C
:103AC000931F0E94CD1C0E94471CF0E1FA95F1F76C
:103AD0005A9852985A9A80E18A95F1F78AE08E9D19
:103AE00080018F9D100D1124035D1E4FD801129689
:103AF0006C911297662371F12091C2013091C3013C
:103B000013968D919C91820F931F0E94791CD8016E
:103B1000ED91FC91882311F088E001C082E0808360
:103B20000E943F1C0F90DF91CF91FF91EF91BF91C9
:103B3000AF919F918F917F916F915F914F913F9145
:103B40002F911F910F91FF90EF900F900FBE0F904C
:103B50001F901895ED91FC91DFCF0F931F93CF939A
:103B6000DF93EC0104970CF0A9C08AE08C9FF00170
:103B70008D9FF00D1124E35DFE4F80819181892B93
:103B800009F49CC0F894529A5A9885E08A95F1F706
:103B900000008C2F869585709C2F9570890F982F2B
:103BA000937086958695890F8E0193E0000F111F03
:103BB0009A95E1F7082B0E94471C00C068E0802F0F
:103BC0000E94AC1CA0E1AA95F1F752985A9A4A9B20
:103BD00027C087E090E04A9925C08AE08C9F800149
:103BE0008D9F100D1124035D1E4FF8016581662322
:103BF000A1F12091C2013091C30186819781820F8A
:103C0000931F0E94791C811128C0529A5A9AD80198
:103C1000ED91FC9182E08083789482E090E016C080
:103C200000C0D5CF0197B9F4529A5A9A8AE08C9F76
:103C3000F0018D9FF00D1124E35DFE4F0190F081A6
:103C4000E02D81E08083789481E090E0DF91CF9156
:103C50001F910F91089500C0BECF0E943F1CB0E29B
:103C6000BA95F1F75A98529AE0E1EA95F1F78AE0AD
:103C70008C9FF0018D9FF00D1124E35DFE4F62815A
:103C8000662351F02091C2013091C3018381948158
:103C9000820F931F0E94CD1C0E94471C8AE08C9FBC
:103CA000F0018D9FF00D1124E35DFE4F0190F08136
:103CB000E02D1082789490E080E0C8CF84E090E01E
:103CC000C5CF9093C5018093C40108959093770266
:103CD0008093760208950E945214811103C080914E
:103CE00071020895E0917602F0917702309721F009
:103CF0000190F081E02D099480E008950E946B1EF0
:103D00000895E0917602F0917702309721F00280D9
:103D1000F381E02D09940895E0917602F091770205
:103D2000309739F022E0DC012C930480F581E02DFE
:103D3000099408952091740230917502281739076B
:103D400071F09093750280937402E0917602F09185
:103D50007702309721F00680F781E02D09940895CD
:103D600020917202309173022817390771F09093F5
:103D7000730280937202E0917602F091770230979D
:103D800021F00084F185E02D099408959C012E5FB7
:103D90003F4FAC01485F5F4F80E02417350709F4BF
:103DA0000895F90191919F019923B9F38F5FF5CFA0
:103DB000662349F0FC01329608962191261729F0D6
:103DC000E817F907D1F780E0089581E008959C0194
:103DD000FC0132969FEF80E04191461751F09F3FE2
:103DE00019F4411101C0982F8F5F8630A9F79F3FCA
:103DF00009F40895290F311D97FD3A95F901628361
:103E00000895FC01329608962191261303C0DF0124
:103E100011971C92E817F907B9F708950C94E71E5B
:103E20000C94011F029626E0FC0111922A95E9F7F5
:103E3000089508950C94191F811105C081E08093A5
:103E400078020C941A1F82E0FACF83E08093780204
:103E50000C941A1F0C941C1F81E0809378020C9420
:103E60001A1F0C942C1F08958091AF02843031F1F9
:103E70000E94F1021092790288E190E020E40FB6EE
:103E8000F894A895809360000FBE2093600083B7DC
:103E9000817F846083BF83B7816083BF7894889576
:103EA00083B78E7F83BF0FB6F894A895809160008A
:103EB000886180936000109260000FBE089508959D
:103EC0000895CF930E945F1F0E94C6130E94601F37
:103ED000C0E08C2F0E947C12811105C0CF5FC830DA
:103EE000C1F7CF91089581E0FCCF0E94D5070C94D3
:103EF0005F031F921FB61F9211248F939F93AF935E
:103F0000BF9380917902811113C08091A702909193
:103F1000A802A091A902B091AA024196A11DB11DCB
:103F20008093A7029093A802A093A902B093AA023B
:103F3000BF91AF919F918F911F901FBE1F901895B9
:103F400082E084BD93E095BD9AEF97BD80936E00AB
:103F500008952FB7F8948091A7029091A802A0919C
:103F6000A902B091AA022FBF08952FB7F8946091CB
:103F7000A7027091A8028091A9029091AA022FBF76
:103F800008959C014FB7F8948091A7029091A802E0
:103F9000A091A902B091AA024FBF821B930B089572
:103FA000CF92DF92EF92FF922FB7F894C090A702C2
:103FB000D090A802E090A902F090AA022FBFA7011A
:103FC0009601261B370B480B590BCA01B901FF900C
:103FD000EF90DF90CF90089578941F921FB61F92B4
:103FE00011248F939F93AF93BF938091A7029091D9
:103FF000A802A091A902B091AA020196A11DB11D2B
:104000008093A7029093A802A093A902B093AA025A
:10401000BF91AF919F918F911F901FBE1F901895D8
:1040200081E08093E00080E28093D8001092C90084
:104030008FE19EE40197F1F700C0000087E090EB6C
:10404000DC018093B8029093B902A093BA02B093B6
:10405000BB0288E19CE00FB6F894A89580936000BD
:104060000FBE90936000FFCF809185020895089560
:104070009C0182E08093E9009FEF8091E8009150DD
:1040800085FD06C085ED8A95F1F700009111F5CF09
:104090008091E80085FF0CC050E040E066E070E0F1
:1040A000C9010E945E228091E8008E778093E8002B
:1040B0000895CF93DF93EC0181E08093E9008FEFC7
:1040C0009091E800815095FD06C095ED9A95F1F725
:1040D00000008111F5CF8091E80085FF14C050E009
:1040E00040E068E070E0CE010E945E228091E8002E
:1040F0008E778093E80088E0FE01ADE7B2E00190A2
:104100000D928A95E1F7DF91CF91089580937A021D
:1041100070937C0260937B028091AF02843001F542
:1041200082E08093E9008FEF9091E800815095FD47
:1041300006C095ED9A95F1F700008111F5CF8091B9
:10414000E80085FF0DC050E040E063E070E08AE7E2
:1041500092E00E945E228091E8008E778093E800D2
:104160000895BC0184E00C948620BC0183E00C948B
:1041700086208091AE02811109C00E94EE230E9428
:104180004B248091E20084608093E20008951092B5
:10419000AE0208950C942C1F6091AB0281E0611176
:1041A00001C080E00C94251F9091AF0281E0943013
:1041B00009F080E06091AB020C942A1F42E061ECB0
:1041C00081E00E946A2342E261EC82E00E946A235D
:1041D0009091AF0281E0943009F080E06091AB02F1
:1041E0000C941C1F8091B102833009F460C030F43C
:1041F0008130C9F1823009F49CC008958A3009F4F5
:1042000088C08B3009F46EC0893009F04FC08091AE
:10421000B002813209F04AC08091B4029091B50297
:10422000029708F043C08091E800877F8093E80000
:104230008091E80082FF36C09091F3008091F200F7
:10424000029731F48091F100813011F0863021F431
:104250008091F100809385028091E8008B778093B4
:10426000E8000C949E238091B002813AF9F4809189
:10427000E800877F8093E8008091B4029091B502B6
:10428000892B61F468E08DE792E070E00E94AD2236
:104290008091E8008B778093E800089560E090E0DB
:1042A00080E0F3CF8091AF028111C2CF0895809159
:1042B000B002813AD9F78091B4029091B502892B6E
:1042C000A9F78091E800877F8093E8008091E8005B
:1042D00080FFFCCF80915F018093F1008091E80026
:1042E0008E77BDCF8091B002813201F78091B40208
:1042F0009091B502892BD1F68091E800877F809359
:10430000E8000E949E238091B20280935F010C948A
:10431000D5078091B002813249F68091E800877F0D
:104320008093E8000E949E238091B30280938602CE
:1043300008958091B002813A09F0B8CF8091E800E9
:10434000877F8093E8008091E80080FFFCCF809118
:104350008602C2CF84B7877F84BF0FB6F894A89532
:1043600080916000886180936000109260000FBEB1
:1043700080E890E00FB6F89480936100909361001C
:104380000FBE0C94311F0E94EE230E944B24E2EEDC
:10439000F0E080818460808378940C94D42683E557
:1043A00091E00C94661E8091AF028530A9F4809153
:1043B000AF02853011F00C94751F0E94341F80915C
:1043C000AD028823A1F30E94611F882381F30E941C
:1043D00048220E94D507EBCF089508950C94F02150
:1043E000292F33272330310519F168F421303105A5
:1043F00009F444C02230310509F445C090E080E062
:1044000030E020E025C02132310549F1223231056A
:10441000A9F780E490E024E833E061157105C1F06C
:104420008BE790E029E033E06130710589F0E6CF59
:1044300099278130910581F0009729F00297F1F6D4
:10444000ECE9F2E002C0E8EBF2E0849190E09F0139
:10445000FA01318320830895E8EAF2E0F6CF89E09B
:1044600090E02EEC32E06115710591F389E090E067
:1044700027EE32E06130710559F3C0CF82E190E060
:1044800027EF32E0E5CF8BE390E02CEB32E0E0CF9A
:1044900080E189BD82E189BD09B400FEFDCF809134
:1044A000D8008F7D8093D8008091E0008260809357
:1044B000E0008091E00081FDFCCF0895AF92BF92B3
:1044C000CF92DF92FF920F931F93CF93DF936C01F4
:1044D000EB018A010E94BD23F82E811123C0011532
:1044E000110539F0F80180819181C81BD90BC80EE4
:1044F000D91EB12CA12C2097A9F08091E80085FD50
:1045000022C08091E8008E778093E80001151105A4
:10451000A1F0F80180819181A80EB91EB182A0821C
:1045200085E0F82E8F2DDF91CF911F910F91FF9095
:10453000DF90CF90BF90AF9008950E94BD23882355
:10454000D1F2F82EEFCFF60181916F018093F10047
:104550002197FFEFAF1ABF0ACECFFC018091B602C0
:104560009091B70286179707A0F06115710529F49D
:104570009091E8009E779093E80090E061157105B6
:1045800051F4911108C08091E80082FF34C080E0AE
:104590000895BC01F2CF8091AF028823C1F185302C
:1045A000C1F18091E80083FD30C08091E80082FD78
:1045B000EACF8091E80080FFE1CF8091F300209165
:1045C000F200382F6115710519F02830310558F0C7
:1045D00091E02830310509F090E02091E8002E7735
:1045E0002093E800CBCF81918093F1006150710955
:1045F0002F5F3F4FE7CF8091AF02882341F0853096
:1046000041F08091E80083FFBECF81E0089582E011
:10461000089583E00895FC018091B6029091B7025D
:1046200086179707A0F06115710529F48091E800BD
:104630008E778093E80090E06115710551F4911137
:1046400008C08091E80082FF35C080E00895BC0179
:10465000F2CF8091AF028823C9F18530C9F18091F2
:10466000E80083FD31C08091E80082FDEACF8091AF
:10467000E80080FFE1CF8091F3002091F200382F15
:104680006115710519F02830310558F091E0283096
:10469000310509F090E08091E8008E778093E80082
:1046A000CBCF84918093F1003196615071092F5FD7
:1046B0003F4FE6CF8091AF02882341F0853041F033
:1046C0008091E80083FFBDCF81E0089582E00895E6
:1046D00083E00895982F973028F08F708093E90039
:1046E00081E008959093E900242F762F50E09817E9
:1046F00031F07091EC002091ED005091F00021FD1F
:1047000002C09F5FE8CF3091EB003E7F3093EB001B
:104710003091ED003D7F3093ED003091EB00316042
:104720003093EB007093EC002093ED005093F00079
:104730002091EE0027FDE5CF80E008958091B00242
:1047400087FF13C08091E80082FF06C08091E800D7
:104750008B778093E80004C08091AF028111F2CF83
:1047600008958091AF028823D9F38091E80080FFFB
:10477000F8CF8091E8008E77ECCF2091E400309163
:10478000E50095E6A9012091EC00822F817020FFC1
:1047900006C08091E80080FF06C080E00895209167
:1047A000E80022FD1AC08091AF02882389F085308D
:1047B00089F08091EB0085FD0FC02091E4003091DD
:1047C000E50042175307F9F29150E1F684E00895AD
:1047D00082E0089583E0089581E008950E945C24BA
:1047E0000E946424E0EEF0E0808181608083E8ED47
:1047F000F0E080818F77808319BCA7EDB0E08C91C9
:104800008E7F8C9380818F7E80831092AE0208957C
:104810000F931F93CF93DF930E945C240E94642424
:10482000C8EDD0E088818F7788838881806888830D
:1048300088818F7D888319BC1092AF021092AB02E1
:104840001092AD021092AC0200EE10E0F8018081EF
:104850008B7F808388818160888342E060E080E094
:104860000E946A23E1EEF0E080818E7F8083E2EE99
:10487000F0E0808181608083808188608083F8019E
:1048800080818E7F8083888180618883DF91CF9152
:104890001F910F910895E8EDF0E080818F7E808375
:1048A000E7EDF0E080818160808384E082BF81E079
:1048B0008093AE020C940824E8EDF0E080818E7FB6
:1048C00080831092E20008951092DA001092E100C5
:1048D00008951F920F920FB60F9211242F933F93BA
:1048E0004F935F936F937F938F939F93AF93BF93F8
:1048F000EF93FF938091E10082FF0BC08091E20073
:1049000082FF07C08091E1008B7F8093E1000E94CD
:10491000D3268091DA0080FF19C08091D80080FFF3
:1049200015C08091DA008E7F8093DA008091D900E3
:1049300080FF96C080E189BD82E189BD09B400FE97
:10494000FDCF81E08093AF020E94B9208091E10009
:1049500080FF19C08091E20080FF15C08091E200C5
:104960008E7F8093E2008091E20080618093E2007C
:104970008091D80080628093D80019BC85E0809334
:10498000AF020E94CC208091E10084FF2BC0809177
:10499000E20084FF27C080E189BD82E189BD89B53D
:1049A000982F917080FFFBCF8091D8008F7D8093EE
:1049B000D8008091E1008F7E8093E1008091E20039
:1049C0008F7E8093E2008091E20081608093E2001C
:1049D0008091AB02882309F449C084E08093AF0240
:1049E0000E94D4208091E10083FF29C08091E200E1
:1049F00083FF25C08091E100877F8093E10082E002
:104A00008093AF021092AB028091E1008E7F809381
:104A1000E1008091E2008E7F8093E2008091E200CD
:104A200080618093E20042E060E080E00E946A23BF
:104A30008091F00088608093F0000E94CA20FF916E
:104A4000EF91BF91AF919F918F917F916F915F9106
:104A50004F913F912F910F900FBE0F901F9018957F
:104A600019BC1092AF020E94C72070CF8091E30062
:104A700087FD93E09093AF02B3CF1F920F920FB6D2
:104A80000F9211242F933F934F935F936F937F93D4
:104A90008F939F93AF93BF93CF93DF93EF93FF9346
:104AA000D091E900DF708091EC00C82FC17080FDCB
:104AB000C0E81092E9008091F000877F8093F000B9
:104AC00078940E9481251092E9008091F00088601E
:104AD0008093F000CD2BCF70C093E900FF91EF9150
:104AE000DF91CF91BF91AF919F918F917F916F9106
:104AF0005F914F913F912F910F900FBE0F901F909C
:104B000018951F93CF93DF93CDB7DEB7AA970FB653
:104B1000F894DEBF0FBECDBF80EB92E02091F10094
:104B2000FC012193CF01F2E0883B9F07B9F70E9477
:104B3000F2208091E80083FF1EC18091B002909125
:104B4000B1029A3008F017C1E92FF0E0E955F84DAD
:104B50000C941527803899F0823809F00CC18091A7
:104B6000B4028F70873008F006C18093E90080910D
:104B7000EB0085FB882780F91092E90006C0809140
:104B8000AC029091AD02911182609091E800977F04
:104B90009093E8008093F1001092F1008091E8007A
:104BA0008E77E5C0882309F4D3C0823009F0E3C0D2
:104BB0008091B2028111D6C08091B4028F702FEF24
:104BC000280F263008F0D7C08093E9002091EB0031
:104BD00020FFC8C0933031F48091EB008062809355
:104BE000EB00C0C09091EB0090619093EB0021E04E
:104BF00030E001C0220F8A95EAF72093EA00109274
:104C0000EA008091EB008860EACF8111B4C0109176
:104C1000B2021F778091E3008078812B8093E300BC
:104C20008091E800877F8093E8000E949E23809116
:104C3000E80080FFFCCF8091E30080688093E30070
:104C400082E0111183E08093AF0295C080588230DA
:104C500008F091C08091B2029091B3028C3D23E0A4
:104C60009207A1F583E08A838AE289834FB7F8949B
:104C7000DE01139620E03EE051E2E32FF0E0509396
:104C80005700E49120FF03C0E295EF703F5FEF70A3
:104C90008E2F90E0EA30C0F0C7968D939D932F5FE2
:104CA000243159F74FBF8091E800877F8093E80057
:104CB0006AE270E0CE0101960E94AD228091E80088
:104CC0008B778093E80057C0C096E7CF6091B4021D
:104CD0007091B502AE014F5F5F4F0E94EE21BC01A3
:104CE000892B09F448C09091E800977F9093E800E1
:104CF00089819A810E940B23E1CF8038E1F5809170
:104D0000E800877F8093E8008091AB028093F100F8
:104D100045CF811130C09091B202923060F5809100
:104D2000E800877F8093E8009093AB020E949E2367
:104D30008091AB02882311F084E005C08091E300EC
:104D400087FDFACF81E08093AF020E94DE2013C07E
:104D50008091B202813079F481E0933009F080E0F3
:104D60008093AD021092E9008091E800877F8093E4
:104D7000E8000E949E238091E80083FF0AC0809192
:104D8000E800877F8093E8008091EB008062809349
:104D9000EB00AA960FB6F894DEBF0FBECDBFDF9131
:104DA000CF911F9108950895CF938091AF028823EA
:104DB000A1F0C091E900CF709091EC00892F817033
:104DC00090FD80E8C82B1092E9008091E80083FDF7
:104DD0000E948125CF70C093E900CF9108950E9471
:104DE000EE231092AF020895E8EDF0E0808180613B
:104DF00080838AE18A95F1F700C08091D9008170A3
:104E0000089597FB072E16F4009407D077FD09D07C
:104E10000E941B2707FC05D03EF4909581959F4F7B
:104E20000895709561957F4F0895EE0FFF1F0590CF
:104E3000F491E02D0994AA1BBB1B51E107C0AA1FE6
:104E4000BB1FA617B70710F0A61BB70B881F991F2B
:104E50005A95A9F780959095BC01CD010895FB0165
:104E6000DC0104C08D910190801921F44150504023
:104E7000C8F7881B990B0895FB01DC0102C0019063
:104E80000D9241505040D8F70895F999FECF92BD48
:104E900081BDF89A992780B50895A8E1B0E042E075
:104EA00050E00C947927262FF999FECF92BD81BD51
:104EB000F89A019700B4021639F01FBA20BD0FB658
:104EC000F894FA9AF99A0FBE08950396272F0E9434
:104ED00054270E945327252F0E945427242F0C94D7
:104EE00054270196272F0E9454270C945327DC0146
:104EF000CB01FC01F999FECF06C0F2BDE1BDF89AE5
:104F0000319600B40D9241505040B8F70895F8948E
:104F1000FFCF76057605CC05CC0532064E06A505F5
:104F2000A5055906E506F406F4065407A505A505EA
:104F30005D07E407E407ED07ED07EF07ED07ED0771
:104F4000ED07E407E407F407ED07ED07F407AA25EA
:104F5000D225BB26D225BB2605262626BB267D26A6
:024F60008926A0
:104F6200E6002202F7F6F5F432363331939190944B
:104F72006697C63435FFFFFF000000000000000006
:104F8200000000000000000000000000019F02007D
:104F9200000001000000009F020000000401000068
:104FA200009F0204050000000000005F0A1E014687
:104FB2000C1001342059203820B520B120372001AF
:104FC200E200E900EA00B500B600B700CD008301B7
:104FD200CC008A01920194012102230224022502BB
:104FE200260227022A02B300B4006F0070008182F9
:104FF20083E200E900EA00B500B600B700CD008305
:1050020001CC008A0192019401210223022402258B
:1050120002260227022A02B300B4006F0070008148
:04502200828347023C
:00000001FF
